{
  "contractName": "PuppyContract",
  "abi": [
    {
      "inputs": [
        {
          "internalType": "address",
          "name": "",
          "type": "address"
        }
      ],
      "name": "owners",
      "outputs": [
        {
          "internalType": "address",
          "name": "ownerAddress",
          "type": "address"
        },
        {
          "internalType": "enum PuppyContract.OwnerType",
          "name": "ownerType",
          "type": "uint8"
        },
        {
          "internalType": "string",
          "name": "name",
          "type": "string"
        },
        {
          "internalType": "string",
          "name": "surname",
          "type": "string"
        },
        {
          "internalType": "string",
          "name": "phone",
          "type": "string"
        },
        {
          "internalType": "string",
          "name": "town",
          "type": "string"
        },
        {
          "internalType": "string",
          "name": "fiscalCode",
          "type": "string"
        },
        {
          "internalType": "bool",
          "name": "isRegistered",
          "type": "bool"
        }
      ],
      "stateMutability": "view",
      "type": "function",
      "constant": true
    },
    {
      "inputs": [
        {
          "internalType": "address",
          "name": "",
          "type": "address"
        }
      ],
      "name": "puppies",
      "outputs": [
        {
          "internalType": "address",
          "name": "petAddress",
          "type": "address"
        },
        {
          "internalType": "enum PuppyContract.PuppyType",
          "name": "puppyType",
          "type": "uint8"
        },
        {
          "internalType": "enum PuppyContract.Sex",
          "name": "sex",
          "type": "uint8"
        },
        {
          "internalType": "string",
          "name": "name",
          "type": "string"
        },
        {
          "internalType": "string",
          "name": "breed",
          "type": "string"
        },
        {
          "internalType": "string",
          "name": "birthDate",
          "type": "string"
        },
        {
          "internalType": "string",
          "name": "distinguishingMarks",
          "type": "string"
        },
        {
          "internalType": "string",
          "name": "microchipId",
          "type": "string"
        },
        {
          "internalType": "address",
          "name": "dad",
          "type": "address"
        },
        {
          "internalType": "address",
          "name": "mom",
          "type": "address"
        },
        {
          "internalType": "address",
          "name": "ownerAddress",
          "type": "address"
        },
        {
          "internalType": "bool",
          "name": "isRegistered",
          "type": "bool"
        }
      ],
      "stateMutability": "view",
      "type": "function",
      "constant": true
    },
    {
      "inputs": [
        {
          "internalType": "uint256",
          "name": "",
          "type": "uint256"
        }
      ],
      "name": "transfers",
      "outputs": [
        {
          "internalType": "address",
          "name": "puppyAddress",
          "type": "address"
        },
        {
          "internalType": "address",
          "name": "fromAddress",
          "type": "address"
        },
        {
          "internalType": "address",
          "name": "toAddress",
          "type": "address"
        },
        {
          "internalType": "uint256",
          "name": "timestamp",
          "type": "uint256"
        }
      ],
      "stateMutability": "view",
      "type": "function",
      "constant": true
    },
    {
      "inputs": [
        {
          "internalType": "address",
          "name": "",
          "type": "address"
        }
      ],
      "name": "veterinarians",
      "outputs": [
        {
          "internalType": "address",
          "name": "vetAddress",
          "type": "address"
        },
        {
          "internalType": "string",
          "name": "name",
          "type": "string"
        },
        {
          "internalType": "string",
          "name": "surname",
          "type": "string"
        },
        {
          "internalType": "string",
          "name": "phone",
          "type": "string"
        },
        {
          "internalType": "string",
          "name": "fiscalCode",
          "type": "string"
        },
        {
          "internalType": "string",
          "name": "number",
          "type": "string"
        },
        {
          "internalType": "string",
          "name": "provincia",
          "type": "string"
        },
        {
          "internalType": "bool",
          "name": "isRegistered",
          "type": "bool"
        }
      ],
      "stateMutability": "view",
      "type": "function",
      "constant": true
    },
    {
      "inputs": [
        {
          "internalType": "string",
          "name": "_name",
          "type": "string"
        },
        {
          "internalType": "string",
          "name": "_surname",
          "type": "string"
        },
        {
          "internalType": "string",
          "name": "_phone",
          "type": "string"
        },
        {
          "internalType": "string",
          "name": "_fiscalCode",
          "type": "string"
        },
        {
          "internalType": "string",
          "name": "_number",
          "type": "string"
        },
        {
          "internalType": "string",
          "name": "_provincia",
          "type": "string"
        }
      ],
      "name": "registerVeterinarian",
      "outputs": [],
      "stateMutability": "nonpayable",
      "type": "function"
    },
    {
      "inputs": [
        {
          "internalType": "enum PuppyContract.PuppyType",
          "name": "_type",
          "type": "uint8"
        },
        {
          "internalType": "enum PuppyContract.Sex",
          "name": "_sex",
          "type": "uint8"
        },
        {
          "internalType": "string",
          "name": "_name",
          "type": "string"
        },
        {
          "internalType": "string",
          "name": "_breed",
          "type": "string"
        },
        {
          "internalType": "string",
          "name": "_birthDate",
          "type": "string"
        },
        {
          "internalType": "string",
          "name": "_distinguishingMarks",
          "type": "string"
        },
        {
          "internalType": "string",
          "name": "_microchipId",
          "type": "string"
        },
        {
          "internalType": "address",
          "name": "_dadAddress",
          "type": "address"
        },
        {
          "internalType": "address",
          "name": "_momAddress",
          "type": "address"
        },
        {
          "internalType": "address",
          "name": "_ownerAddress",
          "type": "address"
        }
      ],
      "name": "registerPuppy",
      "outputs": [],
      "stateMutability": "nonpayable",
      "type": "function"
    },
    {
      "inputs": [
        {
          "internalType": "enum PuppyContract.OwnerType",
          "name": "_ownerType",
          "type": "uint8"
        },
        {
          "internalType": "string",
          "name": "_name",
          "type": "string"
        },
        {
          "internalType": "string",
          "name": "_surname",
          "type": "string"
        },
        {
          "internalType": "string",
          "name": "_phone",
          "type": "string"
        },
        {
          "internalType": "string",
          "name": "_town",
          "type": "string"
        },
        {
          "internalType": "string",
          "name": "_fiscalCode",
          "type": "string"
        }
      ],
      "name": "registerOwner",
      "outputs": [],
      "stateMutability": "nonpayable",
      "type": "function"
    },
    {
      "inputs": [
        {
          "internalType": "address",
          "name": "_ownerAddress",
          "type": "address"
        }
      ],
      "name": "getOwnerData",
      "outputs": [
        {
          "components": [
            {
              "internalType": "address",
              "name": "ownerAddress",
              "type": "address"
            },
            {
              "internalType": "enum PuppyContract.OwnerType",
              "name": "ownerType",
              "type": "uint8"
            },
            {
              "internalType": "string",
              "name": "name",
              "type": "string"
            },
            {
              "internalType": "string",
              "name": "surname",
              "type": "string"
            },
            {
              "internalType": "string",
              "name": "phone",
              "type": "string"
            },
            {
              "internalType": "string",
              "name": "town",
              "type": "string"
            },
            {
              "internalType": "string",
              "name": "fiscalCode",
              "type": "string"
            },
            {
              "internalType": "address[]",
              "name": "puppies",
              "type": "address[]"
            },
            {
              "internalType": "bool",
              "name": "isRegistered",
              "type": "bool"
            }
          ],
          "internalType": "struct PuppyContract.Owner",
          "name": "",
          "type": "tuple"
        }
      ],
      "stateMutability": "view",
      "type": "function",
      "constant": true
    },
    {
      "inputs": [
        {
          "internalType": "address",
          "name": "_puppyAddress",
          "type": "address"
        }
      ],
      "name": "getPuppyData",
      "outputs": [
        {
          "components": [
            {
              "internalType": "address",
              "name": "petAddress",
              "type": "address"
            },
            {
              "internalType": "enum PuppyContract.PuppyType",
              "name": "puppyType",
              "type": "uint8"
            },
            {
              "internalType": "enum PuppyContract.Sex",
              "name": "sex",
              "type": "uint8"
            },
            {
              "internalType": "string",
              "name": "name",
              "type": "string"
            },
            {
              "internalType": "string",
              "name": "breed",
              "type": "string"
            },
            {
              "internalType": "string",
              "name": "birthDate",
              "type": "string"
            },
            {
              "internalType": "string",
              "name": "distinguishingMarks",
              "type": "string"
            },
            {
              "internalType": "string",
              "name": "microchipId",
              "type": "string"
            },
            {
              "internalType": "address[]",
              "name": "children",
              "type": "address[]"
            },
            {
              "components": [
                {
                  "internalType": "string",
                  "name": "vaccineBatch",
                  "type": "string"
                },
                {
                  "internalType": "string",
                  "name": "date",
                  "type": "string"
                },
                {
                  "internalType": "string",
                  "name": "vaccineType",
                  "type": "string"
                }
              ],
              "internalType": "struct PuppyContract.Vaccine[]",
              "name": "vaccines",
              "type": "tuple[]"
            },
            {
              "internalType": "address",
              "name": "dad",
              "type": "address"
            },
            {
              "internalType": "address",
              "name": "mom",
              "type": "address"
            },
            {
              "internalType": "address",
              "name": "ownerAddress",
              "type": "address"
            },
            {
              "internalType": "bool",
              "name": "isRegistered",
              "type": "bool"
            }
          ],
          "internalType": "struct PuppyContract.Puppy",
          "name": "",
          "type": "tuple"
        }
      ],
      "stateMutability": "view",
      "type": "function",
      "constant": true
    },
    {
      "inputs": [
        {
          "internalType": "address",
          "name": "_puppyAddress",
          "type": "address"
        }
      ],
      "name": "getVaccineData",
      "outputs": [
        {
          "components": [
            {
              "internalType": "string",
              "name": "vaccineBatch",
              "type": "string"
            },
            {
              "internalType": "string",
              "name": "date",
              "type": "string"
            },
            {
              "internalType": "string",
              "name": "vaccineType",
              "type": "string"
            }
          ],
          "internalType": "struct PuppyContract.Vaccine[]",
          "name": "",
          "type": "tuple[]"
        }
      ],
      "stateMutability": "view",
      "type": "function",
      "constant": true
    },
    {
      "inputs": [
        {
          "internalType": "address",
          "name": "_veterinarianAddress",
          "type": "address"
        }
      ],
      "name": "getVeterinarianData",
      "outputs": [
        {
          "components": [
            {
              "internalType": "address",
              "name": "vetAddress",
              "type": "address"
            },
            {
              "internalType": "string",
              "name": "name",
              "type": "string"
            },
            {
              "internalType": "string",
              "name": "surname",
              "type": "string"
            },
            {
              "internalType": "string",
              "name": "phone",
              "type": "string"
            },
            {
              "internalType": "string",
              "name": "fiscalCode",
              "type": "string"
            },
            {
              "internalType": "string",
              "name": "number",
              "type": "string"
            },
            {
              "internalType": "string",
              "name": "provincia",
              "type": "string"
            },
            {
              "internalType": "bool",
              "name": "isRegistered",
              "type": "bool"
            }
          ],
          "internalType": "struct PuppyContract.Veterinarian",
          "name": "",
          "type": "tuple"
        }
      ],
      "stateMutability": "view",
      "type": "function",
      "constant": true
    },
    {
      "inputs": [
        {
          "internalType": "address",
          "name": "_puppyAddress",
          "type": "address"
        },
        {
          "internalType": "string",
          "name": "_vaccineBatch",
          "type": "string"
        },
        {
          "internalType": "string",
          "name": "_date",
          "type": "string"
        },
        {
          "internalType": "string",
          "name": "_vaccineType",
          "type": "string"
        }
      ],
      "name": "addVaccine",
      "outputs": [],
      "stateMutability": "nonpayable",
      "type": "function"
    },
    {
      "inputs": [
        {
          "internalType": "address",
          "name": "_puppyAddress",
          "type": "address"
        },
        {
          "internalType": "address",
          "name": "newOwner",
          "type": "address"
        }
      ],
      "name": "transferOwner",
      "outputs": [],
      "stateMutability": "nonpayable",
      "type": "function"
    }
  ],
  "bytecode": "0x608060405234801561001057600080fd5b506151d3806100206000396000f3fe608060405234801561001057600080fd5b50600436106100cf5760003560e01c80637a10c39e1161008c578063c27982a311610066578063c27982a314610278578063cde2a34c14610294578063e6b962a9146102b0578063f5b85934146102e0576100cf565b80637a10c39e146101de5780639377d7111461020e578063a8cceddb14610241576100cf565b8063022914a7146100d4578063033a39001461010b57806331678cf61461012757806349ce059f14610143578063507919e414610173578063596840d4146101a3575b600080fd5b6100ee60048036038101906100e99190613f02565b6102fc565b604051610102989796959493929190614b1b565b60405180910390f35b61012560048036038101906101209190614113565b610626565b005b610141600480360381019061013c9190613f2b565b610ef8565b005b61015d60048036038101906101589190613f02565b611246565b60405161016a9190614d41565b60405180910390f35b61018d60048036038101906101889190613f02565b61149c565b60405161019a9190614de5565b60405180910390f35b6101bd60048036038101906101b89190613f02565b611cf3565b6040516101d59c9b9a99989796959493929190614bbc565b60405180910390f35b6101f860048036038101906101f39190613f02565b6120a2565b6040516102059190614e07565b60405180910390f35b6102286004803603810190610223919061437f565b6124d9565b6040516102389493929190614ad6565b60405180910390f35b61025b60048036038101906102569190613f02565b612569565b60405161026f989796959493929190614c99565b60405180910390f35b610292600480360381019061028d9190614266565b61290e565b005b6102ae60048036038101906102a99190614012565b612d55565b005b6102ca60048036038101906102c59190613f02565b6132b7565b6040516102d79190614dc3565b60405180910390f35b6102fa60048036038101906102f59190613f67565b613771565b005b60016020528060005260406000206000915090508060000160009054906101000a900473ffffffffffffffffffffffffffffffffffffffff16908060000160149054906101000a900460ff169080600101805461035890615033565b80601f016020809104026020016040519081016040528092919081815260200182805461038490615033565b80156103d15780601f106103a6576101008083540402835291602001916103d1565b820191906000526020600020905b8154815290600101906020018083116103b457829003601f168201915b5050505050908060020180546103e690615033565b80601f016020809104026020016040519081016040528092919081815260200182805461041290615033565b801561045f5780601f106104345761010080835404028352916020019161045f565b820191906000526020600020905b81548152906001019060200180831161044257829003601f168201915b50505050509080600301805461047490615033565b80601f01602080910402602001604051908101604052809291908181526020018280546104a090615033565b80156104ed5780601f106104c2576101008083540402835291602001916104ed565b820191906000526020600020905b8154815290600101906020018083116104d057829003601f168201915b50505050509080600401805461050290615033565b80601f016020809104026020016040519081016040528092919081815260200182805461052e90615033565b801561057b5780601f106105505761010080835404028352916020019161057b565b820191906000526020600020905b81548152906001019060200180831161055e57829003601f168201915b50505050509080600501805461059090615033565b80601f01602080910402602001604051908101604052809291908181526020018280546105bc90615033565b80156106095780601f106105de57610100808354040283529160200191610609565b820191906000526020600020905b8154815290600101906020018083116105ec57829003601f168201915b5050505050908060070160009054906101000a900460ff16905088565b600260003373ffffffffffffffffffffffffffffffffffffffff1673ffffffffffffffffffffffffffffffffffffffff16815260200190815260200160002060070160009054906101000a900460ff16156106b6576040517f08c379a00000000000000000000000000000000000000000000000000000000081526004016106ad90614d83565b60405180910390fd5b600160003373ffffffffffffffffffffffffffffffffffffffff1673ffffffffffffffffffffffffffffffffffffffff16815260200190815260200160002060070160009054906101000a900460ff1615610746576040517f08c379a000000000000000000000000000000000000000000000000000000000815260040161073d90614da3565b60405180910390fd5b6000803373ffffffffffffffffffffffffffffffffffffffff1673ffffffffffffffffffffffffffffffffffffffff168152602001908152602001600020600a0160149054906101000a900460ff16156107d5576040517f08c379a00000000000000000000000000000000000000000000000000000000081526004016107cc90614d63565b60405180910390fd5b6000338160000160006101000a81548173ffffffffffffffffffffffffffffffffffffffff021916908373ffffffffffffffffffffffffffffffffffffffff1602179055508a8160000160146101000a81548160ff02191690836002811115610867577f4e487b7100000000000000000000000000000000000000000000000000000000600052602160045260246000fd5b0217905550898160000160156101000a81548160ff021916908360018111156108b9577f4e487b7100000000000000000000000000000000000000000000000000000000600052602160045260246000fd5b0217905550888160010190805190602001906108d69291906138b4565b50878160020190805190602001906108ef9291906138b4565b50868160030190805190602001906109089291906138b4565b50858160040190805190602001906109219291906138b4565b508481600501908051906020019061093a9291906138b4565b50600067ffffffffffffffff81111561097c577f4e487b7100000000000000000000000000000000000000000000000000000000600052604160045260246000fd5b6040519080825280602002602001820160405280156109aa5781602001602082028036833780820191505090505b508160060190805190602001906109c292919061393a565b50838160080160006101000a81548173ffffffffffffffffffffffffffffffffffffffff021916908373ffffffffffffffffffffffffffffffffffffffff160217905550828160090160006101000a81548173ffffffffffffffffffffffffffffffffffffffff021916908373ffffffffffffffffffffffffffffffffffffffff1602179055508181600a0160006101000a81548173ffffffffffffffffffffffffffffffffffffffff021916908373ffffffffffffffffffffffffffffffffffffffff160217905550600181600a0160146101000a81548160ff021916908315150217905550806000803373ffffffffffffffffffffffffffffffffffffffff1673ffffffffffffffffffffffffffffffffffffffff1681526020019081526020016000206000820160009054906101000a900473ffffffffffffffffffffffffffffffffffffffff168160000160006101000a81548173ffffffffffffffffffffffffffffffffffffffff021916908373ffffffffffffffffffffffffffffffffffffffff1602179055506000820160149054906101000a900460ff168160000160146101000a81548160ff02191690836002811115610bad577f4e487b7100000000000000000000000000000000000000000000000000000000600052602160045260246000fd5b02179055506000820160159054906101000a900460ff168160000160156101000a81548160ff02191690836001811115610c10577f4e487b7100000000000000000000000000000000000000000000000000000000600052602160045260246000fd5b02179055506001820181600101908054610c2990615033565b610c349291906139c4565b506002820181600201908054610c4990615033565b610c549291906139c4565b506003820181600301908054610c6990615033565b610c749291906139c4565b506004820181600401908054610c8990615033565b610c949291906139c4565b506005820181600501908054610ca990615033565b610cb49291906139c4565b506006820181600601908054610ccb929190613a51565b506007820181600701908054610ce2929190613aa3565b506008820160009054906101000a900473ffffffffffffffffffffffffffffffffffffffff168160080160006101000a81548173ffffffffffffffffffffffffffffffffffffffff021916908373ffffffffffffffffffffffffffffffffffffffff1602179055506009820160009054906101000a900473ffffffffffffffffffffffffffffffffffffffff168160090160006101000a81548173ffffffffffffffffffffffffffffffffffffffff021916908373ffffffffffffffffffffffffffffffffffffffff160217905550600a820160009054906101000a900473ffffffffffffffffffffffffffffffffffffffff1681600a0160006101000a81548173ffffffffffffffffffffffffffffffffffffffff021916908373ffffffffffffffffffffffffffffffffffffffff160217905550600a820160149054906101000a900460ff1681600a0160146101000a81548160ff021916908315150217905550905050600160008373ffffffffffffffffffffffffffffffffffffffff1673ffffffffffffffffffffffffffffffffffffffff168152602001908152602001600020600601339080600181540180825580915050600190039060005260206000200160009091909190916101000a81548173ffffffffffffffffffffffffffffffffffffffff021916908373ffffffffffffffffffffffffffffffffffffffff1602179055505050505050505050505050565b813373ffffffffffffffffffffffffffffffffffffffff166000808373ffffffffffffffffffffffffffffffffffffffff1673ffffffffffffffffffffffffffffffffffffffff168152602001908152602001600020600a0160009054906101000a900473ffffffffffffffffffffffffffffffffffffffff1673ffffffffffffffffffffffffffffffffffffffff1614610f9257600080fd5b6000838160000160006101000a81548173ffffffffffffffffffffffffffffffffffffffff021916908373ffffffffffffffffffffffffffffffffffffffff160217905550338160010160006101000a81548173ffffffffffffffffffffffffffffffffffffffff021916908373ffffffffffffffffffffffffffffffffffffffff160217905550828160020160006101000a81548173ffffffffffffffffffffffffffffffffffffffff021916908373ffffffffffffffffffffffffffffffffffffffff1602179055504281600301819055508060036000836003015481526020019081526020016000206000820160009054906101000a900473ffffffffffffffffffffffffffffffffffffffff168160000160006101000a81548173ffffffffffffffffffffffffffffffffffffffff021916908373ffffffffffffffffffffffffffffffffffffffff1602179055506001820160009054906101000a900473ffffffffffffffffffffffffffffffffffffffff168160010160006101000a81548173ffffffffffffffffffffffffffffffffffffffff021916908373ffffffffffffffffffffffffffffffffffffffff1602179055506002820160009054906101000a900473ffffffffffffffffffffffffffffffffffffffff168160020160006101000a81548173ffffffffffffffffffffffffffffffffffffffff021916908373ffffffffffffffffffffffffffffffffffffffff16021790555060038201548160030155905050826000808673ffffffffffffffffffffffffffffffffffffffff1673ffffffffffffffffffffffffffffffffffffffff168152602001908152602001600020600a0160006101000a81548173ffffffffffffffffffffffffffffffffffffffff021916908373ffffffffffffffffffffffffffffffffffffffff16021790555050505050565b60606000808373ffffffffffffffffffffffffffffffffffffffff1673ffffffffffffffffffffffffffffffffffffffff168152602001908152602001600020600701805480602002602001604051908101604052809291908181526020016000905b8282101561149157838290600052602060002090600302016040518060600160405290816000820180546112dc90615033565b80601f016020809104026020016040519081016040528092919081815260200182805461130890615033565b80156113555780601f1061132a57610100808354040283529160200191611355565b820191906000526020600020905b81548152906001019060200180831161133857829003601f168201915b5050505050815260200160018201805461136e90615033565b80601f016020809104026020016040519081016040528092919081815260200182805461139a90615033565b80156113e75780601f106113bc576101008083540402835291602001916113e7565b820191906000526020600020905b8154815290600101906020018083116113ca57829003601f168201915b5050505050815260200160028201805461140090615033565b80601f016020809104026020016040519081016040528092919081815260200182805461142c90615033565b80156114795780601f1061144e57610100808354040283529160200191611479565b820191906000526020600020905b81548152906001019060200180831161145c57829003601f168201915b505050505081525050815260200190600101906112a9565b505050509050919050565b6114a4613b5b565b6000808373ffffffffffffffffffffffffffffffffffffffff1673ffffffffffffffffffffffffffffffffffffffff168152602001908152602001600020604051806101c00160405290816000820160009054906101000a900473ffffffffffffffffffffffffffffffffffffffff1673ffffffffffffffffffffffffffffffffffffffff1673ffffffffffffffffffffffffffffffffffffffff1681526020016000820160149054906101000a900460ff16600281111561158f577f4e487b7100000000000000000000000000000000000000000000000000000000600052602160045260246000fd5b60028111156115c7577f4e487b7100000000000000000000000000000000000000000000000000000000600052602160045260246000fd5b81526020016000820160159054906101000a900460ff166001811115611616577f4e487b7100000000000000000000000000000000000000000000000000000000600052602160045260246000fd5b600181111561164e577f4e487b7100000000000000000000000000000000000000000000000000000000600052602160045260246000fd5b815260200160018201805461166290615033565b80601f016020809104026020016040519081016040528092919081815260200182805461168e90615033565b80156116db5780601f106116b0576101008083540402835291602001916116db565b820191906000526020600020905b8154815290600101906020018083116116be57829003601f168201915b505050505081526020016002820180546116f490615033565b80601f016020809104026020016040519081016040528092919081815260200182805461172090615033565b801561176d5780601f106117425761010080835404028352916020019161176d565b820191906000526020600020905b81548152906001019060200180831161175057829003601f168201915b5050505050815260200160038201805461178690615033565b80601f01602080910402602001604051908101604052809291908181526020018280546117b290615033565b80156117ff5780601f106117d4576101008083540402835291602001916117ff565b820191906000526020600020905b8154815290600101906020018083116117e257829003601f168201915b5050505050815260200160048201805461181890615033565b80601f016020809104026020016040519081016040528092919081815260200182805461184490615033565b80156118915780601f1061186657610100808354040283529160200191611891565b820191906000526020600020905b81548152906001019060200180831161187457829003601f168201915b505050505081526020016005820180546118aa90615033565b80601f01602080910402602001604051908101604052809291908181526020018280546118d690615033565b80156119235780601f106118f857610100808354040283529160200191611923565b820191906000526020600020905b81548152906001019060200180831161190657829003601f168201915b50505050508152602001600682018054806020026020016040519081016040528092919081815260200182805480156119b157602002820191906000526020600020905b8160009054906101000a900473ffffffffffffffffffffffffffffffffffffffff1673ffffffffffffffffffffffffffffffffffffffff1681526020019060010190808311611967575b5050505050815260200160078201805480602002602001604051908101604052809291908181526020016000905b82821015611bc75783829060005260206000209060030201604051806060016040529081600082018054611a1290615033565b80601f0160208091040260200160405190810160405280929190818152602001828054611a3e90615033565b8015611a8b5780601f10611a6057610100808354040283529160200191611a8b565b820191906000526020600020905b815481529060010190602001808311611a6e57829003601f168201915b50505050508152602001600182018054611aa490615033565b80601f0160208091040260200160405190810160405280929190818152602001828054611ad090615033565b8015611b1d5780601f10611af257610100808354040283529160200191611b1d565b820191906000526020600020905b815481529060010190602001808311611b0057829003601f168201915b50505050508152602001600282018054611b3690615033565b80601f0160208091040260200160405190810160405280929190818152602001828054611b6290615033565b8015611baf5780601f10611b8457610100808354040283529160200191611baf565b820191906000526020600020905b815481529060010190602001808311611b9257829003601f168201915b505050505081525050815260200190600101906119df565b5050505081526020016008820160009054906101000a900473ffffffffffffffffffffffffffffffffffffffff1673ffffffffffffffffffffffffffffffffffffffff1673ffffffffffffffffffffffffffffffffffffffff1681526020016009820160009054906101000a900473ffffffffffffffffffffffffffffffffffffffff1673ffffffffffffffffffffffffffffffffffffffff1673ffffffffffffffffffffffffffffffffffffffff168152602001600a820160009054906101000a900473ffffffffffffffffffffffffffffffffffffffff1673ffffffffffffffffffffffffffffffffffffffff1673ffffffffffffffffffffffffffffffffffffffff168152602001600a820160149054906101000a900460ff1615151515815250509050919050565b60006020528060005260406000206000915090508060000160009054906101000a900473ffffffffffffffffffffffffffffffffffffffff16908060000160149054906101000a900460ff16908060000160159054906101000a900460ff1690806001018054611d6290615033565b80601f0160208091040260200160405190810160405280929190818152602001828054611d8e90615033565b8015611ddb5780601f10611db057610100808354040283529160200191611ddb565b820191906000526020600020905b815481529060010190602001808311611dbe57829003601f168201915b505050505090806002018054611df090615033565b80601f0160208091040260200160405190810160405280929190818152602001828054611e1c90615033565b8015611e695780601f10611e3e57610100808354040283529160200191611e69565b820191906000526020600020905b815481529060010190602001808311611e4c57829003601f168201915b505050505090806003018054611e7e90615033565b80601f0160208091040260200160405190810160405280929190818152602001828054611eaa90615033565b8015611ef75780601f10611ecc57610100808354040283529160200191611ef7565b820191906000526020600020905b815481529060010190602001808311611eda57829003601f168201915b505050505090806004018054611f0c90615033565b80601f0160208091040260200160405190810160405280929190818152602001828054611f3890615033565b8015611f855780601f10611f5a57610100808354040283529160200191611f85565b820191906000526020600020905b815481529060010190602001808311611f6857829003601f168201915b505050505090806005018054611f9a90615033565b80601f0160208091040260200160405190810160405280929190818152602001828054611fc690615033565b80156120135780601f10611fe857610100808354040283529160200191612013565b820191906000526020600020905b815481529060010190602001808311611ff657829003601f168201915b5050505050908060080160009054906101000a900473ffffffffffffffffffffffffffffffffffffffff16908060090160009054906101000a900473ffffffffffffffffffffffffffffffffffffffff169080600a0160009054906101000a900473ffffffffffffffffffffffffffffffffffffffff169080600a0160149054906101000a900460ff1690508c565b6120aa613c94565b600260008373ffffffffffffffffffffffffffffffffffffffff1673ffffffffffffffffffffffffffffffffffffffff168152602001908152602001600020604051806101000160405290816000820160009054906101000a900473ffffffffffffffffffffffffffffffffffffffff1673ffffffffffffffffffffffffffffffffffffffff1673ffffffffffffffffffffffffffffffffffffffff16815260200160018201805461215b90615033565b80601f016020809104026020016040519081016040528092919081815260200182805461218790615033565b80156121d45780601f106121a9576101008083540402835291602001916121d4565b820191906000526020600020905b8154815290600101906020018083116121b757829003601f168201915b505050505081526020016002820180546121ed90615033565b80601f016020809104026020016040519081016040528092919081815260200182805461221990615033565b80156122665780601f1061223b57610100808354040283529160200191612266565b820191906000526020600020905b81548152906001019060200180831161224957829003601f168201915b5050505050815260200160038201805461227f90615033565b80601f01602080910402602001604051908101604052809291908181526020018280546122ab90615033565b80156122f85780601f106122cd576101008083540402835291602001916122f8565b820191906000526020600020905b8154815290600101906020018083116122db57829003601f168201915b5050505050815260200160048201805461231190615033565b80601f016020809104026020016040519081016040528092919081815260200182805461233d90615033565b801561238a5780601f1061235f5761010080835404028352916020019161238a565b820191906000526020600020905b81548152906001019060200180831161236d57829003601f168201915b505050505081526020016005820180546123a390615033565b80601f01602080910402602001604051908101604052809291908181526020018280546123cf90615033565b801561241c5780601f106123f15761010080835404028352916020019161241c565b820191906000526020600020905b8154815290600101906020018083116123ff57829003601f168201915b5050505050815260200160068201805461243590615033565b80601f016020809104026020016040519081016040528092919081815260200182805461246190615033565b80156124ae5780601f10612483576101008083540402835291602001916124ae565b820191906000526020600020905b81548152906001019060200180831161249157829003601f168201915b505050505081526020016007820160009054906101000a900460ff1615151515815250509050919050565b60036020528060005260406000206000915090508060000160009054906101000a900473ffffffffffffffffffffffffffffffffffffffff16908060010160009054906101000a900473ffffffffffffffffffffffffffffffffffffffff16908060020160009054906101000a900473ffffffffffffffffffffffffffffffffffffffff16908060030154905084565b60026020528060005260406000206000915090508060000160009054906101000a900473ffffffffffffffffffffffffffffffffffffffff16908060010180546125b290615033565b80601f01602080910402602001604051908101604052809291908181526020018280546125de90615033565b801561262b5780601f106126005761010080835404028352916020019161262b565b820191906000526020600020905b81548152906001019060200180831161260e57829003601f168201915b50505050509080600201805461264090615033565b80601f016020809104026020016040519081016040528092919081815260200182805461266c90615033565b80156126b95780601f1061268e576101008083540402835291602001916126b9565b820191906000526020600020905b81548152906001019060200180831161269c57829003601f168201915b5050505050908060030180546126ce90615033565b80601f01602080910402602001604051908101604052809291908181526020018280546126fa90615033565b80156127475780601f1061271c57610100808354040283529160200191612747565b820191906000526020600020905b81548152906001019060200180831161272a57829003601f168201915b50505050509080600401805461275c90615033565b80601f016020809104026020016040519081016040528092919081815260200182805461278890615033565b80156127d55780601f106127aa576101008083540402835291602001916127d5565b820191906000526020600020905b8154815290600101906020018083116127b857829003601f168201915b5050505050908060050180546127ea90615033565b80601f016020809104026020016040519081016040528092919081815260200182805461281690615033565b80156128635780601f1061283857610100808354040283529160200191612863565b820191906000526020600020905b81548152906001019060200180831161284657829003601f168201915b50505050509080600601805461287890615033565b80601f01602080910402602001604051908101604052809291908181526020018280546128a490615033565b80156128f15780601f106128c6576101008083540402835291602001916128f1565b820191906000526020600020905b8154815290600101906020018083116128d457829003601f168201915b5050505050908060070160009054906101000a900460ff16905088565b600260003373ffffffffffffffffffffffffffffffffffffffff1673ffffffffffffffffffffffffffffffffffffffff16815260200190815260200160002060070160009054906101000a900460ff161561299e576040517f08c379a000000000000000000000000000000000000000000000000000000000815260040161299590614d83565b60405180910390fd5b600160003373ffffffffffffffffffffffffffffffffffffffff1673ffffffffffffffffffffffffffffffffffffffff16815260200190815260200160002060070160009054906101000a900460ff1615612a2e576040517f08c379a0000000000000000000000000000000000000000000000000000000008152600401612a2590614da3565b60405180910390fd5b6000803373ffffffffffffffffffffffffffffffffffffffff1673ffffffffffffffffffffffffffffffffffffffff168152602001908152602001600020600a0160149054906101000a900460ff1615612abd576040517f08c379a0000000000000000000000000000000000000000000000000000000008152600401612ab490614d63565b60405180910390fd5b6000338160000160006101000a81548173ffffffffffffffffffffffffffffffffffffffff021916908373ffffffffffffffffffffffffffffffffffffffff16021790555086816001019080519060200190612b1a9291906138b4565b5085816002019080519060200190612b339291906138b4565b5084816003019080519060200190612b4c9291906138b4565b5083816004019080519060200190612b659291906138b4565b5082816005019080519060200190612b7e9291906138b4565b5081816006019080519060200190612b979291906138b4565b5060018160070160006101000a81548160ff02191690831515021790555080600260003373ffffffffffffffffffffffffffffffffffffffff1673ffffffffffffffffffffffffffffffffffffffff1681526020019081526020016000206000820160009054906101000a900473ffffffffffffffffffffffffffffffffffffffff168160000160006101000a81548173ffffffffffffffffffffffffffffffffffffffff021916908373ffffffffffffffffffffffffffffffffffffffff1602179055506001820181600101908054612c7090615033565b612c7b9291906139c4565b506002820181600201908054612c9090615033565b612c9b9291906139c4565b506003820181600301908054612cb090615033565b612cbb9291906139c4565b506004820181600401908054612cd090615033565b612cdb9291906139c4565b506005820181600501908054612cf090615033565b612cfb9291906139c4565b506006820181600601908054612d1090615033565b612d1b9291906139c4565b506007820160009054906101000a900460ff168160070160006101000a81548160ff02191690831515021790555090505050505050505050565b600260003373ffffffffffffffffffffffffffffffffffffffff1673ffffffffffffffffffffffffffffffffffffffff16815260200190815260200160002060070160009054906101000a900460ff1615612de5576040517f08c379a0000000000000000000000000000000000000000000000000000000008152600401612ddc90614d83565b60405180910390fd5b600160003373ffffffffffffffffffffffffffffffffffffffff1673ffffffffffffffffffffffffffffffffffffffff16815260200190815260200160002060070160009054906101000a900460ff1615612e75576040517f08c379a0000000000000000000000000000000000000000000000000000000008152600401612e6c90614da3565b60405180910390fd5b6000803373ffffffffffffffffffffffffffffffffffffffff1673ffffffffffffffffffffffffffffffffffffffff168152602001908152602001600020600a0160149054906101000a900460ff1615612f04576040517f08c379a0000000000000000000000000000000000000000000000000000000008152600401612efb90614d63565b60405180910390fd5b6000338160000160006101000a81548173ffffffffffffffffffffffffffffffffffffffff021916908373ffffffffffffffffffffffffffffffffffffffff160217905550868160000160146101000a81548160ff02191690836001811115612f96577f4e487b7100000000000000000000000000000000000000000000000000000000600052602160045260246000fd5b021790555085816001019080519060200190612fb39291906138b4565b5084816002019080519060200190612fcc9291906138b4565b5083816003019080519060200190612fe59291906138b4565b5082816004019080519060200190612ffe9291906138b4565b50818160050190805190602001906130179291906138b4565b50600067ffffffffffffffff811115613059577f4e487b7100000000000000000000000000000000000000000000000000000000600052604160045260246000fd5b6040519080825280602002602001820160405280156130875781602001602082028036833780820191505090505b5081600601908051906020019061309f92919061393a565b5060018160070160006101000a81548160ff02191690831515021790555080600160003373ffffffffffffffffffffffffffffffffffffffff1673ffffffffffffffffffffffffffffffffffffffff1681526020019081526020016000206000820160009054906101000a900473ffffffffffffffffffffffffffffffffffffffff168160000160006101000a81548173ffffffffffffffffffffffffffffffffffffffff021916908373ffffffffffffffffffffffffffffffffffffffff1602179055506000820160149054906101000a900460ff168160000160146101000a81548160ff021916908360018111156131c2577f4e487b7100000000000000000000000000000000000000000000000000000000600052602160045260246000fd5b021790555060018201816001019080546131db90615033565b6131e69291906139c4565b5060028201816002019080546131fb90615033565b6132069291906139c4565b50600382018160030190805461321b90615033565b6132269291906139c4565b50600482018160040190805461323b90615033565b6132469291906139c4565b50600582018160050190805461325b90615033565b6132669291906139c4565b50600682018160060190805461327d929190613a51565b506007820160009054906101000a900460ff168160070160006101000a81548160ff02191690831515021790555090505050505050505050565b6132bf613cf1565b600160008373ffffffffffffffffffffffffffffffffffffffff1673ffffffffffffffffffffffffffffffffffffffff168152602001908152602001600020604051806101200160405290816000820160009054906101000a900473ffffffffffffffffffffffffffffffffffffffff1673ffffffffffffffffffffffffffffffffffffffff1673ffffffffffffffffffffffffffffffffffffffff1681526020016000820160149054906101000a900460ff1660018111156133ab577f4e487b7100000000000000000000000000000000000000000000000000000000600052602160045260246000fd5b60018111156133e3577f4e487b7100000000000000000000000000000000000000000000000000000000600052602160045260246000fd5b81526020016001820180546133f790615033565b80601f016020809104026020016040519081016040528092919081815260200182805461342390615033565b80156134705780601f1061344557610100808354040283529160200191613470565b820191906000526020600020905b81548152906001019060200180831161345357829003601f168201915b5050505050815260200160028201805461348990615033565b80601f01602080910402602001604051908101604052809291908181526020018280546134b590615033565b80156135025780601f106134d757610100808354040283529160200191613502565b820191906000526020600020905b8154815290600101906020018083116134e557829003601f168201915b5050505050815260200160038201805461351b90615033565b80601f016020809104026020016040519081016040528092919081815260200182805461354790615033565b80156135945780601f1061356957610100808354040283529160200191613594565b820191906000526020600020905b81548152906001019060200180831161357757829003601f168201915b505050505081526020016004820180546135ad90615033565b80601f01602080910402602001604051908101604052809291908181526020018280546135d990615033565b80156136265780601f106135fb57610100808354040283529160200191613626565b820191906000526020600020905b81548152906001019060200180831161360957829003601f168201915b5050505050815260200160058201805461363f90615033565b80601f016020809104026020016040519081016040528092919081815260200182805461366b90615033565b80156136b85780601f1061368d576101008083540402835291602001916136b8565b820191906000526020600020905b81548152906001019060200180831161369b57829003601f168201915b505050505081526020016006820180548060200260200160405190810160405280929190818152602001828054801561374657602002820191906000526020600020905b8160009054906101000a900473ffffffffffffffffffffffffffffffffffffffff1673ffffffffffffffffffffffffffffffffffffffff16815260200190600101908083116136fc575b505050505081526020016007820160009054906101000a900460ff1615151515815250509050919050565b600260003373ffffffffffffffffffffffffffffffffffffffff1673ffffffffffffffffffffffffffffffffffffffff16815260200190815260200160002060070160009054906101000a900460ff166137ca57600080fd5b600060405180606001604052808581526020018481526020018381525090506000808673ffffffffffffffffffffffffffffffffffffffff1673ffffffffffffffffffffffffffffffffffffffff16815260200190815260200160002060070181908060018154018082558091505060019003906000526020600020906003020160009091909190915060008201518160000190805190602001906138709291906138b4565b50602082015181600101908051906020019061388d9291906138b4565b5060408201518160020190805190602001906138aa9291906138b4565b5050505050505050565b8280546138c090615033565b90600052602060002090601f0160209004810192826138e25760008555613929565b82601f106138fb57805160ff1916838001178555613929565b82800160010185558215613929579182015b8281111561392857825182559160200191906001019061390d565b5b5090506139369190613d8d565b5090565b8280548282559060005260206000209081019282156139b3579160200282015b828111156139b25782518260006101000a81548173ffffffffffffffffffffffffffffffffffffffff021916908373ffffffffffffffffffffffffffffffffffffffff1602179055509160200191906001019061395a565b5b5090506139c09190613d8d565b5090565b8280546139d090615033565b90600052602060002090601f0160209004810192826139f25760008555613a40565b82601f10613a035780548555613a40565b82800160010185558215613a4057600052602060002091601f016020900482015b82811115613a3f578254825591600101919060010190613a24565b5b509050613a4d9190613d8d565b5090565b828054828255906000526020600020908101928215613a925760005260206000209182015b82811115613a91578254825591600101919060010190613a76565b5b509050613a9f9190613d8d565b5090565b828054828255906000526020600020906003028101928215613b4a5760005260206000209160030282015b82811115613b495782826000820181600001908054613aec90615033565b613af79291906139c4565b506001820181600101908054613b0c90615033565b613b179291906139c4565b506002820181600201908054613b2c90615033565b613b379291906139c4565b50505091600301919060030190613ace565b5b509050613b579190613daa565b5090565b604051806101c00160405280600073ffffffffffffffffffffffffffffffffffffffff16815260200160006002811115613bbe577f4e487b7100000000000000000000000000000000000000000000000000000000600052602160045260246000fd5b815260200160006001811115613bfd577f4e487b7100000000000000000000000000000000000000000000000000000000600052602160045260246000fd5b815260200160608152602001606081526020016060815260200160608152602001606081526020016060815260200160608152602001600073ffffffffffffffffffffffffffffffffffffffff168152602001600073ffffffffffffffffffffffffffffffffffffffff168152602001600073ffffffffffffffffffffffffffffffffffffffff1681526020016000151581525090565b604051806101000160405280600073ffffffffffffffffffffffffffffffffffffffff1681526020016060815260200160608152602001606081526020016060815260200160608152602001606081526020016000151581525090565b604051806101200160405280600073ffffffffffffffffffffffffffffffffffffffff16815260200160006001811115613d54577f4e487b7100000000000000000000000000000000000000000000000000000000600052602160045260246000fd5b81526020016060815260200160608152602001606081526020016060815260200160608152602001606081526020016000151581525090565b5b80821115613da6576000816000905550600101613d8e565b5090565b5b80821115613ded5760008082016000613dc49190613df1565b600182016000613dd49190613df1565b600282016000613de49190613df1565b50600301613dab565b5090565b508054613dfd90615033565b6000825580601f10613e0f5750613e2e565b601f016020900490600052602060002090810190613e2d9190613d8d565b5b50565b6000613e44613e3f84614e5a565b614e29565b905082815260208101848484011115613e5c57600080fd5b613e67848285614ff1565b509392505050565b600081359050613e7e8161513f565b92915050565b600081359050613e9381615156565b92915050565b600081359050613ea881615166565b92915050565b600081359050613ebd81615176565b92915050565b600082601f830112613ed457600080fd5b8135613ee4848260208601613e31565b91505092915050565b600081359050613efc81615186565b92915050565b600060208284031215613f1457600080fd5b6000613f2284828501613e6f565b91505092915050565b60008060408385031215613f3e57600080fd5b6000613f4c85828601613e6f565b9250506020613f5d85828601613e6f565b9150509250929050565b60008060008060808587031215613f7d57600080fd5b6000613f8b87828801613e6f565b945050602085013567ffffffffffffffff811115613fa857600080fd5b613fb487828801613ec3565b935050604085013567ffffffffffffffff811115613fd157600080fd5b613fdd87828801613ec3565b925050606085013567ffffffffffffffff811115613ffa57600080fd5b61400687828801613ec3565b91505092959194509250565b60008060008060008060c0878903121561402b57600080fd5b600061403989828a01613e84565b965050602087013567ffffffffffffffff81111561405657600080fd5b61406289828a01613ec3565b955050604087013567ffffffffffffffff81111561407f57600080fd5b61408b89828a01613ec3565b945050606087013567ffffffffffffffff8111156140a857600080fd5b6140b489828a01613ec3565b935050608087013567ffffffffffffffff8111156140d157600080fd5b6140dd89828a01613ec3565b92505060a087013567ffffffffffffffff8111156140fa57600080fd5b61410689828a01613ec3565b9150509295509295509295565b6000806000806000806000806000806101408b8d03121561413357600080fd5b60006141418d828e01613e99565b9a505060206141528d828e01613eae565b99505060408b013567ffffffffffffffff81111561416f57600080fd5b61417b8d828e01613ec3565b98505060608b013567ffffffffffffffff81111561419857600080fd5b6141a48d828e01613ec3565b97505060808b013567ffffffffffffffff8111156141c157600080fd5b6141cd8d828e01613ec3565b96505060a08b013567ffffffffffffffff8111156141ea57600080fd5b6141f68d828e01613ec3565b95505060c08b013567ffffffffffffffff81111561421357600080fd5b61421f8d828e01613ec3565b94505060e06142308d828e01613e6f565b9350506101006142428d828e01613e6f565b9250506101206142548d828e01613e6f565b9150509295989b9194979a5092959850565b60008060008060008060c0878903121561427f57600080fd5b600087013567ffffffffffffffff81111561429957600080fd5b6142a589828a01613ec3565b965050602087013567ffffffffffffffff8111156142c257600080fd5b6142ce89828a01613ec3565b955050604087013567ffffffffffffffff8111156142eb57600080fd5b6142f789828a01613ec3565b945050606087013567ffffffffffffffff81111561431457600080fd5b61432089828a01613ec3565b935050608087013567ffffffffffffffff81111561433d57600080fd5b61434989828a01613ec3565b92505060a087013567ffffffffffffffff81111561436657600080fd5b61437289828a01613ec3565b9150509295509295509295565b60006020828403121561439157600080fd5b600061439f84828501613eed565b91505092915050565b60006143b483836143d4565b60208301905092915050565b60006143cc8383614996565b905092915050565b6143dd81614f3a565b82525050565b6143ec81614f3a565b82525050565b60006143fd82614eaa565b6144078185614ee5565b935061441283614e8a565b8060005b8381101561444357815161442a88826143a8565b975061443583614ecb565b925050600181019050614416565b5085935050505092915050565b600061445b82614eb5565b6144658185614ef6565b93508360208202850161447785614e9a565b8060005b858110156144b3578484038952815161449485826143c0565b945061449f83614ed8565b925060208a0199505060018101905061447b565b50829750879550505050505092915050565b60006144d082614eb5565b6144da8185614f07565b9350836020820285016144ec85614e9a565b8060005b85811015614528578484038952815161450985826143c0565b945061451483614ed8565b925060208a019950506001810190506144f0565b50829750879550505050505092915050565b61454381614f4c565b82525050565b61455281614f4c565b82525050565b61456181614fbb565b82525050565b61457081614fbb565b82525050565b61457f81614fcd565b82525050565b61458e81614fcd565b82525050565b61459d81614fdf565b82525050565b6145ac81614fdf565b82525050565b60006145bd82614ec0565b6145c78185614f18565b93506145d7818560208601615000565b6145e0816150f2565b840191505092915050565b60006145f682614ec0565b6146008185614f29565b9350614610818560208601615000565b614619816150f2565b840191505092915050565b6000614631602383614f29565b91507f4163636f756e7420616c7265616479207265676973746572656420617320507560008301527f70707900000000000000000000000000000000000000000000000000000000006020830152604082019050919050565b6000614697602a83614f29565b91507f4163636f756e7420616c7265616479207265676973746572656420617320566560008301527f746572696e617269616e000000000000000000000000000000000000000000006020830152604082019050919050565b60006146fd602383614f29565b91507f4163636f756e7420616c72656164792072656769737465726564206173204f7760008301527f6e657200000000000000000000000000000000000000000000000000000000006020830152604082019050919050565b60006101208301600083015161476f60008601826143d4565b5060208301516147826020860182614558565b506040830151848203604086015261479a82826145b2565b915050606083015184820360608601526147b482826145b2565b915050608083015184820360808601526147ce82826145b2565b91505060a083015184820360a08601526147e882826145b2565b91505060c083015184820360c086015261480282826145b2565b91505060e083015184820360e086015261481c82826143f2565b91505061010083015161483361010086018261453a565b508091505092915050565b60006101c08301600083015161485760008601826143d4565b50602083015161486a6020860182614576565b50604083015161487d6040860182614594565b506060830151848203606086015261489582826145b2565b915050608083015184820360808601526148af82826145b2565b91505060a083015184820360a08601526148c982826145b2565b91505060c083015184820360c08601526148e382826145b2565b91505060e083015184820360e08601526148fd82826145b2565b91505061010083015184820361010086015261491982826143f2565b9150506101208301518482036101208601526149358282614450565b91505061014083015161494c6101408601826143d4565b506101608301516149616101608601826143d4565b506101808301516149766101808601826143d4565b506101a083015161498b6101a086018261453a565b508091505092915050565b600060608301600083015184820360008601526149b382826145b2565b915050602083015184820360208601526149cd82826145b2565b915050604083015184820360408601526149e782826145b2565b9150508091505092915050565b600061010083016000830151614a0d60008601826143d4565b5060208301518482036020860152614a2582826145b2565b91505060408301518482036040860152614a3f82826145b2565b91505060608301518482036060860152614a5982826145b2565b91505060808301518482036080860152614a7382826145b2565b91505060a083015184820360a0860152614a8d82826145b2565b91505060c083015184820360c0860152614aa782826145b2565b91505060e0830151614abc60e086018261453a565b508091505092915050565b614ad081614fb1565b82525050565b6000608082019050614aeb60008301876143e3565b614af860208301866143e3565b614b0560408301856143e3565b614b126060830184614ac7565b95945050505050565b600061010082019050614b31600083018b6143e3565b614b3e602083018a614567565b8181036040830152614b5081896145eb565b90508181036060830152614b6481886145eb565b90508181036080830152614b7881876145eb565b905081810360a0830152614b8c81866145eb565b905081810360c0830152614ba081856145eb565b9050614baf60e0830184614549565b9998505050505050505050565b600061018082019050614bd2600083018f6143e3565b614bdf602083018e614585565b614bec604083018d6145a3565b8181036060830152614bfe818c6145eb565b90508181036080830152614c12818b6145eb565b905081810360a0830152614c26818a6145eb565b905081810360c0830152614c3a81896145eb565b905081810360e0830152614c4e81886145eb565b9050614c5e6101008301876143e3565b614c6c6101208301866143e3565b614c7a6101408301856143e3565b614c88610160830184614549565b9d9c50505050505050505050505050565b600061010082019050614caf600083018b6143e3565b8181036020830152614cc1818a6145eb565b90508181036040830152614cd581896145eb565b90508181036060830152614ce981886145eb565b90508181036080830152614cfd81876145eb565b905081810360a0830152614d1181866145eb565b905081810360c0830152614d2581856145eb565b9050614d3460e0830184614549565b9998505050505050505050565b60006020820190508181036000830152614d5b81846144c5565b905092915050565b60006020820190508181036000830152614d7c81614624565b9050919050565b60006020820190508181036000830152614d9c8161468a565b9050919050565b60006020820190508181036000830152614dbc816146f0565b9050919050565b60006020820190508181036000830152614ddd8184614756565b905092915050565b60006020820190508181036000830152614dff818461483e565b905092915050565b60006020820190508181036000830152614e2181846149f4565b905092915050565b6000604051905081810181811067ffffffffffffffff82111715614e5057614e4f6150c3565b5b8060405250919050565b600067ffffffffffffffff821115614e7557614e746150c3565b5b601f19601f8301169050602081019050919050565b6000819050602082019050919050565b6000819050602082019050919050565b600081519050919050565b600081519050919050565b600081519050919050565b6000602082019050919050565b6000602082019050919050565b600082825260208201905092915050565b600082825260208201905092915050565b600082825260208201905092915050565b600082825260208201905092915050565b600082825260208201905092915050565b6000614f4582614f91565b9050919050565b60008115159050919050565b6000819050614f6682615103565b919050565b6000819050614f7982615117565b919050565b6000819050614f8c8261512b565b919050565b600073ffffffffffffffffffffffffffffffffffffffff82169050919050565b6000819050919050565b6000614fc682614f58565b9050919050565b6000614fd882614f6b565b9050919050565b6000614fea82614f7e565b9050919050565b82818337600083830152505050565b60005b8381101561501e578082015181840152602081019050615003565b8381111561502d576000848401525b50505050565b6000600282049050600182168061504b57607f821691505b6020821081141561505f5761505e615094565b5b50919050565b7f4e487b7100000000000000000000000000000000000000000000000000000000600052602160045260246000fd5b7f4e487b7100000000000000000000000000000000000000000000000000000000600052602260045260246000fd5b7f4e487b7100000000000000000000000000000000000000000000000000000000600052604160045260246000fd5b6000601f19601f8301169050919050565b6002811061511457615113615065565b5b50565b6003811061512857615127615065565b5b50565b6002811061513c5761513b615065565b5b50565b61514881614f3a565b811461515357600080fd5b50565b6002811061516357600080fd5b50565b6003811061517357600080fd5b50565b6002811061518357600080fd5b50565b61518f81614fb1565b811461519a57600080fd5b5056fea264697066735822122091390f30117fd373543e152c6c7aebb35cd4739710581561500d1c4f2e38dcfb64736f6c63430008000033",
  "immutableReferences": {},
  "source": "// SPDX-License-Identifier: MIT\npragma solidity >=0.4.0 <0.9.0;\npragma experimental ABIEncoderV2;\n\ncontract PuppyContract {\n \n    //model Animal\n    enum Sex { M, F }\n    enum PuppyType { Dog, Cat, Rabbit }\n    struct Puppy {\n        address petAddress;\n        PuppyType puppyType;\n        Sex sex;\n        string name;\n        string breed;\n        string birthDate;\n        string  distinguishingMarks;\n        string microchipId;\n        address[] children;\n        Vaccine[] vaccines;\n        address dad;\n        address mom;\n        address ownerAddress;\n        bool isRegistered;\n    }\n    \n    //model Vaccine\n    struct Vaccine {\n        string vaccineBatch;\n        string date;\n        string vaccineType;\n    }\n    \n    //model Owner\n    enum OwnerType {Private, Association}\n    struct Owner {\n        address ownerAddress;\n        OwnerType ownerType;\n        string name;\n        string surname;\n        //string birthDate;\n        //string homeAddress;\n        string phone;\n        string town;\n        //string zipCode;\n        //string country;\n        string fiscalCode;\n        address[] puppies;\n        bool isRegistered;\n    }\n    \n    //model Veterinarian\n    struct Veterinarian {\n        address vetAddress;\n        string name;\n        string surname;\n        //string birthDate;\n        //string homeAddress;\n        string phone;\n        //string town;\n        //string zipCode;\n        //string country;\n        string fiscalCode;\n        string number;\n        string provincia;\n        bool isRegistered;\n    }\n    \n    //Transfer model\n    struct Transfer {\n        address puppyAddress;\n        address fromAddress;\n        address toAddress;\n        uint timestamp;\n    }\n\n    //Insurance Contract model\n    enum InsuranceType { HEALTH, DAMAGE }\n    struct InsuranceContract {\n        address insuranceCoAddress;\n        address puppyAddress;\n        InsuranceType insuranceType;\n        //uint insuranceAmount;\n        //uint maxCostCovered;\n    }\n\n    //Insurance Company model\n    struct InsuranceCo {\n        address companyAddress;\n        uint contractNum;\n    }\n    \n    //veterinarians, owners and puppies on the network mapped with their address\n    mapping(address => Puppy) public puppies;\n    mapping(address => Owner) public owners;\n    mapping(address => Veterinarian) public veterinarians;\n    mapping(uint => Transfer) public transfers;\n    \n    /***********************************************/\n    /*                  Modifiers                  */\n    /***********************************************/\n    \n    modifier onlyPuppy() {\n        require(puppies[msg.sender].isRegistered);\n        _;\n    }\n\n    modifier onlyOwner() {\n        require(owners[msg.sender].isRegistered);\n        _;\n    }\n\n    modifier onlyVeterinarian() {\n        require(veterinarians[msg.sender].isRegistered);\n        _;\n    }\n    \n    modifier onlyPuppyOwner(address _puppyAddress) {\n        require(puppies[_puppyAddress].ownerAddress == msg.sender);\n        _;\n    }\n    \n    function checkUser() private view returns(bool) {\n        bool isRegistered = false;\n        \n        if(veterinarians[msg.sender].isRegistered){\n            isRegistered = true;\n        }\n        else if(owners[msg.sender].isRegistered){\n                isRegistered = true;\n        }\n        else if (puppies[msg.sender].isRegistered){\n                isRegistered = true;\n        }\n            \n        return isRegistered;\n    }\n    \n    /***********************************************/\n    /*                Registration                 */\n    /***********************************************/\n\n    //register sender as Veterinarian\n    function registerVeterinarian ( string memory _name, \n                                    string memory _surname, \n                                    //string memory _birthDate,\n                                    //string memory _homeAddress,\n                                    string memory _phone,\n                                    //string memory _town,\n                                    //string memory _zipCode,\n                                    //string memory _country,\n                                    string memory _fiscalCode,\n                                    string memory _number,\n                                    string memory _provincia) public {\n                \n      //check msg.sender not existing in veterinarians\n      require(!veterinarians[msg.sender].isRegistered, \"Account already registered as Veterinarian\");\n      //check msg.sender not existing in owners\n      require(!owners[msg.sender].isRegistered, \"Account already registered as Owner\");\n      //check msg.sender not existing in puppies\n      require(!puppies[msg.sender].isRegistered, \"Account already registered as Puppy\");                        \n      \n          Veterinarian storage v;\n          v.vetAddress = msg.sender;\n          v.name = _name;\n          v.surname = _surname;\n          //v.birthDate = _birthDate;\n          //v.homeAddress = _homeAddress;\n          v.phone = _phone;\n          //v.town = _town;\n          //v.zipCode = _zipCode;\n          //v.country = _country;\n          v.fiscalCode = _fiscalCode;\n          v.number = _number;\n          v.provincia = _provincia;\n          v.isRegistered = true;\n          veterinarians[msg.sender] = v;\n        \n    }\n    \n    //register address as Puppy\n    function registerPuppy (PuppyType _type, \n                            Sex _sex, \n                            string memory _name,\n                            string memory _breed,\n                            string memory _birthDate,\n                            string memory _distinguishingMarks,\n                            string memory _microchipId,\n                            address _dadAddress,\n                            address _momAddress,\n                            address _ownerAddress) public {\n                                        \n      //check msg.sender not existing in veterinarians\n      require(!veterinarians[msg.sender].isRegistered, \"Account already registered as Veterinarian\");\n      //check msg.sender not existing in owners\n      require(!owners[msg.sender].isRegistered, \"Account already registered as Owner\");\n      //check msg.sender not existing in puppies\n      require(!puppies[msg.sender].isRegistered, \"Account already registered as Puppy\");\n      \n          Puppy storage p;\n          p.petAddress = msg.sender;\n          p.puppyType = _type;\n          p.sex = _sex;\n          p.name = _name;\n          p.breed = _breed;\n          p.birthDate = _birthDate;\n          p.distinguishingMarks = _distinguishingMarks;\n          p.microchipId = _microchipId;\n          p.children = new address[](0);\n          //p.vaccines = new Vaccine[](0);\n          p.dad = _dadAddress;\n          p.mom = _momAddress;\n          p.ownerAddress = _ownerAddress;\n          p.isRegistered = true;\n          puppies[msg.sender] = p;\n    \n          owners[_ownerAddress].puppies.push(msg.sender);\n        \n    }\n    \n    //register sender as Owner\n    function registerOwner (OwnerType _ownerType,\n                            string memory _name, \n                            string memory _surname, \n                            //string memory _birthDate,\n                            //string memory _homeAddress,\n                            string memory _phone,\n                            string memory _town,\n                            //string memory _zipCode,\n                            //string memory _country,\n                            string memory _fiscalCode) public {\n                                        \n      //check msg.sender not existing in veterinarians\n      require(!veterinarians[msg.sender].isRegistered, \"Account already registered as Veterinarian\");\n      //check msg.sender not existing in owners\n      require(!owners[msg.sender].isRegistered, \"Account already registered as Owner\");\n      //check msg.sender not existing in puppies\n      require(!puppies[msg.sender].isRegistered, \"Account already registered as Puppy\");\n      \n          Owner storage o;\n          o.ownerAddress = msg.sender;\n          o.ownerType = _ownerType;\n          o.name = _name;\n          o.surname = _surname;\n          //o.birthDate = _birthDate;\n          //o.homeAddress = _homeAddress;\n          o.phone = _phone;\n          o.town = _town;\n          //o.zipCode = _zipCode;\n          //o.country = _country;\n          o.fiscalCode = _fiscalCode;\n          o.puppies = new address[](0);\n          o.isRegistered = true;\n          owners[msg.sender] = o;\n      \n      \n    }\n\n    \n    /***********************************************/\n    /*                   Getters                   */\n    /***********************************************/\n    \n    //get Owner Data\n    function getOwnerData (address _ownerAddress) public view returns( Owner memory) {\n      return owners[_ownerAddress];\n    }\n    \n    //get Puppy Data\n    function getPuppyData (address _puppyAddress) public view returns( Puppy memory) {\n        return puppies[_puppyAddress];\n    }\n    \n    //get Vaccine Data\n    function getVaccineData(address _puppyAddress) public view returns (Vaccine[] memory) {\n        return puppies[_puppyAddress].vaccines;\n    }\n    \n    //get Veterinarian Data\n    function getVeterinarianData (address _veterinarianAddress) public view returns( Veterinarian memory) {\n      return veterinarians[_veterinarianAddress];\n    }\n    \n    /***********************************************/\n    /*                   Setters                   */\n    /***********************************************/\n    \n    function addVaccine (address _puppyAddress, string memory _vaccineBatch, string memory _date, string memory _vaccineType) onlyVeterinarian public {\n        Vaccine memory v = Vaccine(_vaccineBatch, _date, _vaccineType);\n        //v.vaccineBatch = _vaccineBatch;\n        //v.date = _date;\n        //v.vaccineType = _vaccineType;\n        \n        puppies[_puppyAddress].vaccines.push(v);\n        \n    }\n    \n    function transferOwner (address _puppyAddress, address newOwner) onlyPuppyOwner(_puppyAddress) public {\n        \n        Transfer storage t;\n        t.puppyAddress = _puppyAddress;\n        t.fromAddress = msg.sender;\n        t.toAddress = newOwner;\n        t.timestamp = block.timestamp;\n        \n        transfers[t.timestamp] = t;\n        puppies[_puppyAddress].ownerAddress = newOwner;\n        //delete puppy from owner puppies array\n    } \n\n}",
  "sourcePath": "C:/Users/franz/OneDrive/Desktop/Dev/puppyId/puppyd/blockchain/contracts/Migrations.sol",
  "compiler": {
    "name": "solc",
    "version": "0.8.0+commit.c7dfd78e.Emscripten.clang"
  },
  "schemaVersion": "3.3.3",
  "updatedAt": "2021-01-21T23:19:57.158Z",
  "networkType": "ethereum",
  "devdoc": {
    "kind": "dev",
    "methods": {},
    "version": 1
  },
  "userdoc": {
    "kind": "user",
    "methods": {},
    "version": 1
  }
}